:100000000C942A000C9447000C9447000C94470071
:100010000C9447000C9447000C9447000C94470044
:100020000C9447000C9447000C9447000C94470034
:100030000C9447000C9447000C9447000C94470024
:100040000C9447000C9447000C9447000C94470014
:100050000C94470011241FBECFE5D4E0DEBFCDBF16
:1000600010E0A0E6B0E0EEEDF4E002C005900D92E5
:10007000A03BB107D9F720E0A0EBB0E001C01D9292
:10008000A23BB207E1F70E9497010C946D020C9419
:10009000000030EF2FEF9FEE6FED5FEB4FE73ABBC5
:1000A0002BBB8BB38F708BBB000089B38F70809399
:1000B000B0008F30B1F7EFE3FCE93197F1F700C002
:1000C000000089B38F708093B0008F30A1F3FFEFF1
:1000D00079EF80E0F15070408040E1F700C000000F
:1000E00089B38F708093B0008F3029F39BBB0000E1
:1000F00089B38F708093B0008F3019F01092B100E7
:1001000024C06BBB000089B38F708093B0008F3028
:1001100021F081E08093B10018C05BBB000089B37F
:100120008F708093B0008F3021F082E08093B10017
:100130000CC04BBB000089B38F708093B0008F3030
:1001400009F4ADCF83E08093B1008091B0008E3090
:1001500059F4E091B100F0E0EE0FFF1FEE0FFF1F2A
:10016000E05AFF4F808108958D3059F4E091B1003D
:10017000F0E0EE0FFF1FEE0FFF1FE05AFF4F8181EF
:1001800008958B3059F4E091B100F0E0EE0FFF1FBD
:10019000EE0FFF1FE05AFF4F82810895E091B100FA
:1001A000F0E0EE0FFF1FEE0FFF1FE05AFF4F8381BD
:1001B0000895979A00C097980895CF93DF93D82F0A
:1001C000662311F0959A01C09598969887B38F6031
:1001D00087BBC8B3C07F8D2F82958F708C2B88BB57
:1001E0000E94D900DF70DC2BD8BB0E94D900CF6001
:1001F000C8BBDF91CF910895882311F0959A01C073
:100200009598969A87B3807F87BB979A00C096B3DC
:10021000979800C0979A00C026B32F70892F8295B7
:10022000807F9798822B089580E00E94FC008823AD
:10023000DCF383E090E00197F1F780E00E94FC009E
:100240000895CF93C82F0E94140160E08C2F0E9464
:10025000DD00CF910895611104C080580E942101F2
:10026000089580540E942101089581E00E94210197
:100270000895CF93C82F0E941401CA3049F48034E6
:1002800010F080E001C080E480580E94210104C089
:1002900061E08C2F0E94DD00CF910895CF93DF9312
:1002A000EC012196FC018081882329F00E9439010C
:1002B00089918111FBCFDF91CF9108951F93CF9347
:1002C000DF93182F87B38F6087BB8D9A8E9A8F9A92
:1002D00080E393E70197F1F7C19AC09A0E94D90091
:1002E00080EF93E20197F1F70E94D900C5E7D0E0D3
:1002F000CE010197F1F70E94D900CE010197F1F7E5
:10030000C0980E94D9002197F1F788E20E9421014C
:1003100088E00E9421010E94350186E00E942101AF
:10032000812F0E942101DF91CF911F9108958F921B
:100330009F92AF92BF92CF92DF92EF92FF920F9374
:100340001F93CF93DF93CDB7DEB728970FB6F894FE
:10035000DEBF0FBECDBF80E181BB81E28FBD8AE0F1
:100360008EBD80E890E099BD88BD8CE00E945E0162
:100370000E94350160E081E00E942B0180E790E05F
:100380000E944E0181E38D8382E38E8383E38F831A
:1003900084E38887C12CD12C00E010E07E0125E0A9
:1003A000E20EF11C6894AA24A2F8B12C812C912CA5
:1003B00002C0082D192D61E080E00E942B0104305D
:1003C0001105A4F481E090E08C0F9D1F080F191F08
:1003D0000E944900F80181938F018EE790E00E940E
:1003E0004E010E151F05A1F70A2D1B2D80EC0E9452
:1003F00021014A2D5B2DB701CE0101960E946002BA
:10040000892BA1F480E890E00E944E0182E890E000
:100410000E944E01FFEF24E38CE0F1502040804029
:10042000E1F700C000000E943501C5CF80E890E0F0
:100430000E944E0182E990E00E944E019FEFE3EDA1
:10044000F0E39150E040F040E1F700C000000E946E
:10045000350160E081E00E942B0180E790E00E947E
:100460004E012FEFC21AD20A83E0C816D10409F058
:10047000A0CF81E084BB0E94350181EA90E00E9418
:100480004E019FEFE3EDF0E39150E040F040E1F7E3
:1004900000C0000014BA80E090E028960FB6F894EF
:1004A000DEBF0FBECDBFDF91CF911F910F91FF90A7
:1004B000EF90DF90CF90BF90AF909F908F90089576
:1004C000FB01DC0104C08D910190801921F44150A1
:0E04D0005040C8F7881B990B0895F894FFCF91
:1004DE004423302A433938374236353441333231AA
:1004EE00556E657369206C6F7A696E6B75002A00A4
:1004FE0020004B756361206F746B6C6A7563616E5F
:10050E006100506F6B7573616A7465206F706574EE
:10051E0000556C617A207A616272616E6A656E0056
:00000001FF
