S015000050726F6A656B744B65797061642E73726563D2
S11300000C942A000C9447000C9447000C9447006D
S11300100C9447000C9447000C9447000C94470040
S11300200C9447000C9447000C9447000C94470030
S11300300C9447000C9447000C9447000C94470020
S11300400C9447000C9447000C9447000C94470010
S11300500C94470011241FBECFE5D4E0DEBFCDBF12
S113006011E0A0E6B0E0E6EBFDE002C005900D92E1
S1130070AC33B107D9F721E0ACE3B1E001C01D9284
S1130080AF33B207E1F70E9405030C94D9060C9430
S1130090000030EF2FEF9FEE6FED5FEB4FE73ABBC1
S11300A02BBB8BB38F708BBB000089B38F70809395
S11300B03D018F30B1F7EFE3FCE93197F1F700C070
S11300C0000089B38F7080933D018F30A1F3FFEF5F
S11300D079EF80E0F15070408040E1F700C000000B
S11300E089B38F7080933D018F3029F39BBB00004F
S11300F089B38F7080933D018F3019F010923E01C7
S113010024C06BBB000089B38F7080933D018F3096
S113011021F081E080933E0118C05BBB000089B3ED
S11301208F7080933D018F3021F082E080933E01F7
S11301300CC04BBB000089B38F7080933D018F309E
S113014009F4ADCF83E080933E0180913D018E3070
S113015059F4E0913E01F0E0EE0FFF1FEE0FFF1F98
S1130160E05AFF4F808108958D3059F4E0913E01AB
S1130170F0E0EE0FFF1FEE0FFF1FE05AFF4F8181EB
S113018008958B3059F4E0913E01F0E0EE0FFF1F2B
S1130190EE0FFF1FE05AFF4F82810895E0913E0168
S11301A0F0E0EE0FFF1FEE0FFF1FE05AFF4F8381B9
S11301B00895979A00C097980895CF93C82F6623FF
S11301C011F0959A01C095989698BE9ABD9ABC9ADA
S11301D0BB9AC398C498C598C698CC230CF4C39A08
S11301E0C6FDC49AC5FDC59AC4FDC69A0E94D9002D
S11301F0C398C498C598C698C3FDC39AC2FDC49A4F
S1130200C1FDC59AC0FDC69A0E94D900C69AC59A76
S1130210C49AC39ACF910895882311F0959A01C086
S11302209598969ABE98BD98BC98BB98979A00C02A
S1130230B69B02C080E101C080E0B5998062B499A8
S11302408064B3998068979800C0979A00C0B69963
S11302508160B5998260B4998460B39988609798F5
S1130260089580E00E940C018823DCF384E090E090
S11302700197F1F780E00E940C010895CF93C82FF5
S11302800E94310160E08C2F0E94DD00CF9108951F
S1130290611104C080580E943E01089580540E9458
S11302A03E01089581E00E943E010895CF93C82F36
S11302B00E943101CA3049F4803410F080E001C05A
S11302C080E480580E943E0104C061E08C2F0E94AB
S11302D0DD00CF910895CF93DF93EC012196FC01CB
S11302E08081882329F00E94560189918111FBCFD6
S11302F0DF91CF9108951F93CF93DF93182F8D9A99
S11303008E9A8F9ABE9ABD9ABC9ABB9A80E09DE75A
S11303100197F1F7C59AC69A0E94D90080E097E246
S11303200197F1F70E94D900C0E8D0E0CE0101970F
S1130330F1F70E94D900CE010197F1F7C6980E9407
S1130340D9002197F1F788E20E943E0188E00E94DB
S11303503E010E94520186E00E943E01812F0E94CC
S11303603E01DF91CF911F91089580E181BB81E22D
S11303708FBD8AE08EBD8AEA90E099BD88BD8CE08D
S11303800E947B010E94520160E082E00E944801C9
S113039080E790E00E946B0161E080E00E944801E8
S11303A08DE790E00E946B012FEF8EE994E22150DB
S11303B080409040E1F700C000000E94520108957F
S11303C00F931F93CF93DF938C0160E080E00E9432
S11303D048018DE890E00E946B0161E080E00E949A
S11303E04801E8010C5F1F4F0E94490089938DE981
S11303F090E00E946B01C017D107B1F70E9452012F
S1130400DF91CF911F910F9108950E9452018FE9BE
S113041090E00E946B012FEF8EE994E2215080401E
S11304209040E1F700C000000E9452010895C09A74
S11304302FEF8DE399E4215080409040E1F700C014
S11304400000C0980895CF93DF93EC018881823037
S113045069F40E9452018FEA90E00E946B010E94AD
S113046017020E94520180E090E01EC00E945201D7
S11304708EEB90E00E946B012FEF84E39CE021500F
S113048080409040E1F700C000000E94520160E00B
S113049081E00E9448018DEC90E00E946B0188810C
S11304A08F5F888381E090E0DF91CF9108950E946F
S11304B052018BED90E00E946B012FEF89E698E1E9
S11304C0215080409040E1F700C000000E9452019A
S11304D060E081E00E9448018DEE90E00E946B0193
S11304E061E081E00E9448018CEF90E00E946B0182
S11304F02FEF83ED90E3215080409040E1F700C05E
S113050000000895EF92FF920F931F93CF93DF9310
S1130510CDB7DEB760970FB6F894DEBF0FBECDBF80
S1130520182F092FF62EE72E0E94520185E091E044
S11305300E946B011F928FED8F93EF92FF920F93A6
S11305401F9384E191E09F938F938E010F5F1F4F60
S11305501F930F930E94EF0361E085E00E9448011E
S1130560C8010E946B010FB6F894DEBF0FBECDBF69
S113057060960FB6F894DEBF0FBECDBFDF91CF916A
S11305801F910F91FF90EF900895EF92FF920F93B8
S11305901F93CF93DF93CDB7DEB760970FB6F89470
S11305A0DEBF0FBECDBF182F092FF62EE72E0E94F7
S11305B0520180E291E00E946B01EF92FF920F934F
S11305C01F9380E391E09F938F938E010F5F1F4FE2
S11305D01F930F930E94EF0361E085E00E9448019E
S11305E0C8010E946B010FB6F894DEBF0FBECDBFE9
S11305F060960FB6F894DEBF0FBECDBFDF91CF91EA
S11306001F910F91FF90EF900895CF93DF93CDB793
S1130610DEB72A970FB6F894DEBF0FBECDBF0E9497
S1130620B50181E3898382E38A8383E38B8384E353
S11306308C831A861986B89A61E080E00E9448018A
S1130640CE0105960E94E00144E050E0BE016F5FD8
S11306507F4FCE0105960E94E203892B09F50E9483
S11306600502CC24C394D12C2AC0CE0109960E9441
S11306702302892BE1F0CE0105960E94E00144E0BB
S113068050E0BE016F5F7F4FCE0105960E94E203EA
S1130690892B31F40E940502CC24C394D12C09C0C7
S11306A089859A8503970CF3C12CD12C02C0C12CE7
S11306B0D12C89859A85039711F4C12CD12CB12CA6
S11306C0AA24A394912C6894882481F80E94B403EA
S11306D00E94BF030E94C703F82E0E94C703182F6D
S11306E00E94C703E82E0E94C703082F0E94C70375
S11306F0C114D10459F321E0B21691F0B21620F0DE
S113070082E0B816D1F026C00E9457020E94490028
S113071090E081339105E9F0C297E1F4B82C1AC056
S1130720602F70E08E2D90E00E9482020E944900AA
S1130730BA2C833279F4B92C0DC0612F70E08F2D5F
S113074090E00E94C5020E944900833219F4B92C3A
S113075001C0BA2C9FEF29E688E1915020408040E7
S1130760E1F700C00000B2CF8A9A929A92988FE380
S11307709CE90197F1F700C00000929A08958A98C5
S11307808299FECF829BFECF8299FECF089588E0A6
S1130790829BFECF90EA9A95F1F7829B07C09091D5
S11307A03C01990F916090933C0105C090913C01EC
S11307B0990F90933C018299FECF815049F7809123
S11307C03C010895FB01DC0104C08D910190801966
S11307D021F441505040C8F7881B990B0895AEE0AE
S11307E0B0E0E5EFF3E00C94B0060D891E8986E0D5
S11307F08C831A8309838FEF9FE79E838D83AE01D9
S1130800475E5F4F6F89788DCE0101960E94110477
S1130810EF81F885E00FF11F10822E96E4E00C942E
S1130820CC06ABE0B0E0E7E1F4E00C94A2066C0186
S11308307B018A01FC0117821682838181FFCCC16E
S1130840CE0101963C01F6019381F70193FD859158
S113085093FF81917F01882309F4BAC1853239F469
S113086093FD859193FF81917F01853229F4B6012F
S113087090E00E940806E7CF912C212C312CFFE157
S1130880F315D8F08B3279F038F4803279F0833272
S1130890A1F4232D20611DC08D3261F0803369F4F1
S11308A0232D216016C0832D8260382EE32DE46051
S11308B03E2E2AC0F32DF8601DC037FC2DC020ED5C
S11308C0280F2A3040F08E32B9F436FC81C1232D32
S11308D02064322E19C036FE06C08AE0989E200D90
S11308E01124922E11C0EAE02E9E200D1124222EF6
S11308F0F32DF0623F2E08C08C3621F4832D8068DE
S1130900382E02C0883641F4F70193FD859193FF98
S113091081917F018111B3CF982F9F7D955493309E
S113092028F40C5F1F4F9FE399830DC0833631F089
S1130930833771F0833509F059C021C0F8018081F3
S113094089830E5F1F4F88248394912C530113C015
S11309502801F2E04F0E511CF801A080B18036FE50
S113096003C0692D70E002C06FEF7FEFC5010E94E4
S1130970FD054C018201F32DFF773F2E16C028019F
S113098022E0420E511CF801A080B18036FE03C063
S1130990692D70E002C06FEF7FEFC5010E94F20580
S11309A04C01F32DF0683F2E820133FC1BC0822DD5
S11309B090E088169906B0F4B60180E290E00E94B7
S11309C008062A94F4CFF50137FC859137FE81910E
S11309D05F01B60190E00E94080621102A9421E0EC
S11309E0821A91088114910471F7E8C0843611F0D9
S11309F0893641F5F80137FE07C060817181828133
S1130A0093810C5F1F4F08C060817181072E000C19
S1130A10880B990B0E5F1F4FF32DFF763F2E97FF28
S1130A2009C090958095709561957F4F8F4F9F4F2A
S1130A30F0683F2E2AE030E0A3010E944406882E8D
S1130A40861845C0853731F4232D2F7EB22E2AE037
S1130A5030E025C0932D997FB92E8F36C1F018F45C
S1130A60883579F0B5C0803719F0883721F0B0C0E7
S1130A70E92FE061BE2EB4FE0DC0FB2DF460BF2E45
S1130A8009C034FE0AC0292F2660B22E06C028E011
S1130A9030E005C020E130E002C020E132E0F8019E
S1130AA0B7FE07C060817181828193810C5F1F4F03
S1130AB006C06081718180E090E00E5F1F4FA3014A
S1130AC00E944406882E8618FB2DFF773F2E36FEA3
S1130AD00DC0232D2E7FA22E891458F434FE0BC092
S1130AE032FC09C0832D8E7EA82E05C0B82CA32C01
S1130AF003C0B82C01C0B92CA4FE0FC0FE01E80D40
S1130B00F11D8081803321F49A2D997EA92E09C08C
S1130B10A2FE06C0B394B39404C08A2D867809F06B
S1130B20B394A3FC11C0A0FE06C0B21488F4280C30
S1130B30922C9B180EC0B21460F4B60180E290E0CF
S1130B400E940806B394F7CFB21418F42B1802C00D
S1130B50982C212CA4FE10C0B60180E390E00E94E2
S1130B600806A2FE17C0A1FC03C088E790E002C0FB
S1130B7088E590E0B6010CC08A2D867859F0A1FE74
S1130B8002C08BE201C080E2A7FC8DE2B60190E0D6
S1130B900E940806891438F4B60180E390E00E94AC
S1130BA008069A94F7CF8A94F301E80DF11D808129
S1130BB0B60190E00E9408068110F5CF222009F4C6
S1130BC042CEB60180E290E00E9408062A94F6CF55
S1130BD0F6018681978102C08FEF9FEF2B96E2E1A9
S1130BE00C94BE06FC010590615070400110D8F7CA
S1130BF0809590958E0F9F1F0895FC016150704061
S1130C0001900110D8F7809590958E0F9F1F08953D
S1130C100F931F93CF93DF93FB01238121FD03C027
S1130C208FEF9FEF2CC022FF16C04681578124818D
S1130C3035814217530744F4A081B1819D012F5F90
S1130C403F4F318320838C93268137812F5F3F4F21
S1130C503783268314C08B01EC01FB010084F185EA
S1130C60E02D0995892BE1F6D80116968D919C917A
S1130C701797019617969C938E931697CE01DF9142
S1130C80CF911F910F910895FA01AA27283051F1AD
S1130C90203181F1E8946F936E7F6E5F7F4F8F4FA9
S1130CA09F4FAF4FB1E03ED0B4E03CD0670F781F08
S1130CB0891F9A1FA11D680F791F8A1F911DA11DED
S1130CC06A0F711D811D911DA11D20D009F4689426
S1130CD03F912AE0269F11243019305D3193DEF6CE
S1130CE0CF010895462F4770405D4193B3E00FD084
S1130CF0C9F7F6CF462F4F70405D4A3318F0495D6F
S1130D0031FD4052419302D0A9F7EACFB4E0A69551
S1130D109795879577956795BA95C9F70097610573
S1130D20710508959B01AC010A2E069457954795C9
S1130D3037952795BA95C9F7620F731F841F951FBE
S1130D40A01D08952F923F924F925F926F927F92CF
S1130D508F929F92AF92BF92CF92DF92EF92FF92C7
S1130D600F931F93CF93DF93CDB7DEB7CA1BDB0B73
S1130D700FB6F894DEBF0FBECDBF09942A88398818
S1130D8048885F846E847D848C849B84AA84B9841F
S1130D90C884DF80EE80FD800C811B81AA81B9812B
S1130DA0CE0FD11D0FB6F894DEBF0FBECDBFED013F
S1090DB00895F894FFCF42
S1130DB63134372A323538303336392341424344C5
S1130DC6446F62726F646F736C6920750070616D35
S1130DD665746E75206B756375203A2900556E65CA
S1130DE673697465206C6F7A696E6B75002A004BA3
S1130DF6756361206F746B6C6A7563616E6100550F
S1130E066C617A207A616272616E6A656E00506FF7
S1130E166B7573616A7465206F70657400556E65D1
S1130E267369206C6F7A696E6B75004F64616265D5
S1130E3672697465206F7063696A753A00312E2091
S1130E4654656D706572617475726100322E205638
S1130E566C616761005472656E75746E61207465A9
S1130E666D703A002532642E2531642025634300D3
S1130E765472656E75746E6120766C6167613A00B2
S10F0E862532642E25316420252500004F
S9030000FC
