:100000000C942A000C9447000C9447000C94470071
:100010000C9447000C9447000C9447000C94470044
:100020000C9447000C9447000C9447000C94490032
:100030000C9447000C9447000C9447000C94470024
:100040000C9447000C9447000C9447000C94470014
:100050000C94470011241FBECFE5D4E0DEBFCDBF16
:1000600012E0A0E6B0E0E4EAF4E102C005900D92EF
:10007000A431B107D9F722E0A4E1B2E001C01D929A
:10008000AE3BB207E1F70E94D4030C94500A0C94E3
:1000900000001F920F920FB60F9211242F938F938F
:1000A0009F93EF93FF932FB7F894E0911A02F0918A
:1000B0001B028CB1E35EFD4F808380911A02909108
:1000C0001B02019690931B0280931A0280911A02E0
:1000D00090911B02803A910541F410921B021092FC
:1000E0001A0210921902109218022FBFFF91EF917D
:1000F0009F918F912F910F900FBE0F901F90189589
:100100002F923F924F925F926F927F928F929F9227
:10011000AF92BF92CF92DF92EF92FF920F931F9315
:10012000CF93DF93CDB7DEB72C970FB6F894DEBF31
:100130000FBECDBF9E838D832DB73EB73C872B87E7
:10014000FC0101900020E9F731975F01A81AB90A74
:10015000BB24A5014150510958874F838DB79EB7E5
:100160008A199B090FB6F8949EBF0FBE8DBFADB71D
:10017000BEB711964D018091140290911502A09185
:100180001602B0911702803F984DAF4FBF4F61F4F8
:100190001092140210921502109216021092170279
:1001A00082E08093BD029BC019821A821B821C824E
:1001B0002F803884280C391C94012F5F3F4F3A87D9
:1001C00029878091BD02843011F41092BD02EDE1C7
:1001D000F2E001900020E9F73197CF018D51924074
:1001E0006C01E12CF12CC114D104E104F10409F4F7
:1001F00051C089EF90E00197F1F700C0000029811C
:100200003A814B815C812F5F3F4F4F4F5F4F298376
:100210003A834B835C83EDE1F2E001900020E9F743
:100220003197CF018D519240A0E0B0E0C816D906B9
:10023000EA06FB0679F50DE112E0412C512C320162
:100240004F81588569857A85C4010E942C07D801A1
:100250008D918D01F1018083A5016D817E81C401A5
:100260000E943E07892B61F410921402109215022D
:10027000109216021092170281E08093BD022FC0E7
:10028000FFEF4F1A5F0A6F0A7F0A4C145D046E0479
:100290007F04B1F689EF90E00197F1F700C000000C
:1002A00029813A814B815C812F5F3F4F4F4F5F4FD8
:1002B00029833A834B835C838091140290911502C9
:1002C000A0911602B0911702805F984DAF4FBF4FBB
:1002D000281739074A075B0708F473CF59CF4B85B6
:1002E0005C850FB6F8945EBF0FBE4DBF2C960FB65F
:1002F000F894DEBF0FBECDBFDF91CF911F910F915C
:10030000FF90EF90DF90CF90BF90AF909F908F9035
:100310007F906F905F904F903F902F90089580EA6C
:10032000EDE1F2E0DF011D928A95E9F710921B02E0
:1003300010921A0210921902109218020895CF9387
:10034000DF93EC0184E08093BD02CE010E94800027
:100350008091BD028823C9F3DF91CF9108950E9457
:100360009F0181E09091BD02923009F480E00895F0
:100370000F931F93CF93DF938C01EB010E948F01AA
:10038000C8010E94B70488EC90E00E94B704CE0137
:100390000E94AF01DF91CF911F910F9108950F93AC
:1003A0001F93CF93DF93CDB7DEB764970FB6F89462
:1003B000DEBF0FBECDBF8E010F5F1F4F94E1F8016E
:1003C00011929A95E9F71F928F9387E690E09F9399
:1003D0008F931F930F930E9466071C8A60E670E05C
:1003E000C8010E94B8010F900F900F900F900F90CE
:1003F0000F9064960FB6F894DEBF0FBECDBFDF91AD
:10040000CF911F910F9108950F931F93CF93DF9377
:10041000CDB7DEB764970FB6F894DEBF0FBECDBF81
:100420008E010F5F1F4F94E1F80111929A95E9F741
:100430001F928F9385E790E09F938F931F930F9365
:100440000E9466071C8A60E670E0C8010E94B8013D
:100450000F900F900F900F900F900F9064960FB623
:10046000F894DEBF0FBECDBFDF91CF911F910F91EA
:100470000895CF93C5E060E670E082E890E00E94C6
:10048000B80181110AC060E670E087E890E00E9440
:10049000B801811102C0C15071F7CF9108950F9337
:1004A0001F93CF93DF93CDB7DEB764970FB6F89461
:1004B000DEBF0FBECDBF8E010F5F1F4F94E1F8016D
:1004C00011929A95E9F71F928F9388E990E09F9394
:1004D0008F931F930F930E9466071C8A60E670E05B
:1004E000C8010E94B8010F900F900F900F900F90CD
:1004F0000F9064960FB6F894DEBF0FBECDBFDF91AC
:10050000CF911F910F9108950F931F93CF93DF9376
:10051000CDB7DEB7EC970FB6F894DEBF0FBECDBFF8
:100520008E010F5F1F4F2CE3F80111922A95E9F716
:100530007F936F939F938F9385EA90E09F938F9320
:100540001F930F930E9466071CAE68EB70E0C80112
:100550000E94B8010FB6F894DEBF0FBECDBF811167
:1005600022C06BEC70E08DE192E00E944C07892B79
:10057000E1F464ED70E08DE192E00E944C07892B7C
:10058000B1F46DED70E08DE192E00E944C07892B93
:1005900081F466EE70E08DE192E00E944C07892BB9
:1005A00051F485E009C080E007C081E005C082E029
:1005B00003C083E001C084E0EC960FB6F894DEBF80
:1005C0000FBECDBFDF91CF911F910F91089560E6CF
:1005D00070E08FEE90E00E94B8016CEF70E08DE16A
:1005E00092E00E944C07892BD1F465E071E08DE127
:1005F00092E00E944C07892BA1F46EE071E08DE13E
:1006000092E00E944C07892B71F467E171E08DE163
:1006100092E00E944C07892B41F484E0089580E029
:10062000089581E0089582E0089583E00895DF92BF
:10063000EF92FF920F931F93CF93DF93CDB7DEB767
:10064000EC970FB6F894DEBF0FBECDBFD82E162F95
:10065000072FF42EE52EFE0131968CE3DF011D926B
:100660008A95E9F760E271E089E291E00E94B801C1
:100670008823A1F0EF92FF920F931F9384E391E000
:100680009F938F93CE0101969F938F930E9466074D
:100690000FB6F894DEBF0FBECDBF15C0EF92FF922C
:1006A0000F931F931F92DF928EE491E09F938F939D
:1006B000CE0101969F938F930E9466070FB6F89420
:1006C000DEBF0FBECDBF6DE671E0CE0101960E9488
:1006D000B801811106C08091BD02823021F085E011
:1006E00003C081E001C082E0EC960FB6F894DEBF53
:1006F0000FBECDBFDF91CF911F910F91FF90EF9073
:10070000DF900895EF92FF920F931F93CF93DF93A3
:10071000CDB7DEB764970FB6F894DEBF0FBECDBF7E
:100720008C01CE0101967C0184E1F70111928A953A
:10073000E9F7F80101900020E9F7CF01801B910B48
:1007400001969F938F9387E791E09F938F93FF92FA
:10075000EF920E9466071C8A65E871E0C7010E945B
:10076000B8016DE871E0C8010E94B8010F900F90C8
:100770000F900F900F900F90811106C08091BD02D5
:10078000823021F085E003C081E001C082E0649600
:100790000FB6F894DEBF0FBECDBFDF91CF911F9192
:1007A0000F91FF90EF900895CF93DF93CDB7DEB711
:1007B000C659D1090FB6F894DEBF0FBECDBF60E0B9
:1007C00072EC81E090E00E948F0478940E943902DC
:1007D0008823E1F383E00E944F0280E00E9404023C
:1007E00080E00E94CF010E94E702833031F469E982
:1007F00071E083EA91E00E94840243EB51E066EBF2
:1008000071E080E00E9417030F2EF6E99F2EF02D75
:100810008E010F5F1F4F0F2EF9ECCF2EF1E0DF2E70
:10082000F02D0F2EFAEDEF2EF1E0FF2EF02D0E94AD
:10083000E702833039F469E971E083EA91E00E94CC
:10084000840209C0823039F443EB51E066EB71E079
:1008500080E00E9417030E9461040E946C040E94C1
:100860007404A82E0E9474040E947404B82E0E947E
:1008700074040E947404369AF801292D11922A9565
:10088000E9F71F921F921F92AF921F92BF92DF92C1
:10089000CF92FF92EF921F930F930E946607C801B9
:1008A0000E9482038FEF91E1EAE781509040E0409F
:1008B000E1F700C000000FB6F894DEBF0FBECDBF59
:1008C000B6CF8A9A929A92988FE39CE90197F1F7B2
:1008D00000C00000929A08958A988299FECF829B68
:1008E000FECF8299FECF089588E0829BFECF90EAEA
:1008F0009A95F1F7829B07C090911C02990F916025
:1009000090931C0205C090911C02990F90931C02B9
:100910008299FECF815049F780911C020895599A1F
:100920002AB128692AB920B5266820BD0E94DB05B6
:1009300020E030E040E051E40E9469069B01AC01F8
:1009400060E070E081EE9AE40E94330520E030E040
:1009500040E85FE30E94C6040E94D6060E94A505F7
:1009600069B970BD08958CB95D9BFECF0895CF9392
:10097000DF93EC018881882331F021960E94B30433
:1009800089918111FBCFDF91CF9108955058BB27FA
:10099000AA270E94DE040C942F060E94210638F03C
:1009A0000E94280620F039F49F3F19F426F40C9495
:1009B0001E060EF4E095E7FB0C941806E92F0E9442
:1009C000400658F3BA17620773078407950720F0AB
:1009D00079F4A6F50C9462060EF4E0950B2EBA2F6E
:1009E000A02D0B01B90190010C01CA01A001112435
:1009F000FF27591B99F0593F50F4503E68F11A16E1
:100A0000F040A22F232F342F4427585FF3CF469571
:100A100037952795A795F0405395C9F77EF41F1693
:100A2000BA0B620B730B840BBAF09150A1F0FF0F5D
:100A3000BB1F661F771F881FC2F70EC0BA0F621F49
:100A4000731F841F48F4879577956795B795F79539
:100A50009E3F08F0B0CF9395880F08F09927EE0FCE
:100A60009795879508950E9447050C942F060E943C
:100A7000280658F00E94210640F029F45F3F29F033
:100A80000C94180651110C9463060C941E060E94D7
:100A9000400668F39923B1F3552391F3951B550B49
:100AA000BB27AA2762177307840738F09F5F5F4F41
:100AB000220F331F441FAA1FA9F335D00E2E3AF080
:100AC000E0E832D091505040E695001CCAF72BD098
:100AD000FE2F29D0660F771F881FBB1F26173707E9
:100AE0004807AB07B0E809F0BB0B802DBF01FF271B
:100AF00093585F4F3AF09E3F510578F00C941806DA
:100B00000C9463065F3FE4F3983ED4F386957795A3
:100B10006795B795F7959F5FC9F7880F911D9695D3
:100B2000879597F90895E1E0660F771F881FBB1F2F
:100B3000621773078407BA0720F0621B730B840BDC
:100B4000BA0BEE1F88F7E09508950E94AC056894F3
:100B5000B1110C94630608950E94480688F09F57CF
:100B600098F0B92F9927B751B0F0E1F0660F771FD1
:100B7000881F991F1AF0BA95C9F714C0B13091F0C7
:100B80000E946206B1E008950C946206672F782FE8
:100B90008827B85F39F0B93FCCF38695779567958C
:100BA000B395D9F73EF490958095709561957F4FF8
:100BB0008F4F9F4F0895E89409C097FB3EF490959E
:100BC0008095709561957F4F8F4F9F4F9923A9F026
:100BD000F92F96E9BB279395F695879577956795B5
:100BE000B795F111F8CFFAF4BB0F11F460FF1BC0F9
:100BF0006F5F7F4F8F4F9F4F16C0882311F096E98C
:100C000011C0772321F09EE8872F762F05C0662339
:100C100071F096E8862F70E060E02AF09A95660FF2
:100C2000771F881FDAF7880F9695879597F90895AB
:100C300097F99F6780E870E060E008959FEF80EC8F
:100C4000089500240A941616170618060906089532
:100C500000240A9412161306140605060895092E98
:100C60000394000C11F4882352F0BB0F40F4BF2B07
:100C700011F460FF04C06F5F7F4F8F4F9F4F089547
:100C800057FD9058440F551F59F05F3F71F047953D
:100C9000880F97FB991F61F09F3F79F08795089522
:100CA000121613061406551FF2CF4695F1DF08C041
:100CB000161617061806991FF1CF8695710561055E
:100CC00008940895E894BB2766277727CB0197F906
:100CD00008950E947C060C942F060E94210638F08D
:100CE0000E94280620F0952311F00C9418060C940D
:100CF0001E0611240C9463060E94400670F3959F13
:100D0000C1F3950F50E0551F629FF001729FBB2702
:100D1000F00DB11D639FAA27F00DB11DAA1F649F9E
:100D20006627B00DA11D661F829F2227B00DA11D51
:100D3000621F739FB00DA11D621F839FA00D611DD7
:100D4000221F749F3327A00D611D231F849F600DF8
:100D5000211D822F762F6A2F11249F5750409AF021
:100D6000F1F088234AF0EE0FFF1FBB1F661F771FAD
:100D7000881F91505040A9F79E3F510580F00C9478
:100D800018060C9463065F3FE4F3983ED4F386950F
:100D900077956795B795F795E7959F5FC1F7FE2B18
:100DA000880F911D9695879597F908950E9448069A
:100DB000E8F09E37E8F09639B8F49E3848F4672F8B
:100DC000782F8827985FF9CF8695779567959395C3
:100DD0009539D0F3B62FB1706B0F711D811D20F4C2
:100DE00087957795679593950C94FA060C9415075B
:100DF0000C946306882371F4772321F09850872B95
:100E0000762F07C0662311F499270DC09051862BC9
:100E100070E060E02AF09A95660F771F881FDAF776
:100E2000880F9695879597F908959F3F31F09150D7
:100E300020F4879577956795B795880F911D9695BE
:100E4000879597F90895FB01DC0102C001900D928E
:100E500041505040D8F708956817790768F4FB01AE
:100E6000DC01E40FF51FA40FB51F02C002900E9223
:100E700041505040D8F708950C942307FB01DC0142
:100E80004150504030F08D910190801919F40020AC
:100E9000B9F7881B990B0895FB0151915523A9F0CF
:100EA000BF01DC014D9145174111E1F759F4CD0126
:100EB0000190002049F04D9140154111C9F3FB010B
:100EC0004111EFCF81E090E001970895AEE0B0E0EE
:100ED000ECE6F7E00C94270A0D891E8986E08C83E6
:100EE0001A8309838FEF9FE79E838D83AE01475E50
:100EF0005F4F6F89788DCE0101960E948807EF8140
:100F0000F885E00FF11F10822E96E4E00C94430A5E
:100F1000ABE0B0E0EEE8F7E00C94190A6C017B015D
:100F20008A01FC0117821682838181FFCCC1CE0128
:100F300001963C01F6019381F70193FD859193FFA2
:100F400081917F01882309F4BAC1853239F493FD78
:100F5000859193FF81917F01853229F4B60190E05C
:100F60000E947F09E7CF912C212C312CFFE1F31552
:100F7000D8F08B3279F038F4803279F08332A1F4F2
:100F8000232D20611DC08D3261F0803369F4232D43
:100F9000216016C0832D8260382EE32DE4603E2E42
:100FA0002AC0F32DF8601DC037FC2DC020ED280F9E
:100FB0002A3040F08E32B9F436FC81C1232D2064F2
:100FC000322E19C036FE06C08AE0989E200D1124EC
:100FD000922E11C0EAE02E9E200D1124222EF32D18
:100FE000F0623F2E08C08C3621F4832D8068382EA5
:100FF00002C0883641F4F70193FD859193FF8191FA
:101000007F018111B3CF982F9F7D9554933028F4A1
:101010000C5F1F4F9FE399830DC0833631F08337F8
:1010200071F0833509F059C021C0F80180818983AE
:101030000E5F1F4F88248394912C530113C0280105
:10104000F2E04F0E511CF801A080B18036FE03C0C3
:10105000692D70E002C06FEF7FEFC5010E94740937
:101060004C018201F32DFF773F2E16C0280122E0AC
:10107000420E511CF801A080B18036FE03C0692DDC
:1010800070E002C06FEF7FEFC5010E9469094C015B
:10109000F32DF0683F2E820133FC1BC0822D90E0BF
:1010A00088169906B0F4B60180E290E00E947F09AC
:1010B0002A94F4CFF50137FC859137FE81915F01C9
:1010C000B60190E00E947F0921102A9421E0821A43
:1010D00091088114910471F7E8C0843611F08936C3
:1010E00041F5F80137FE07C06081718182819381EB
:1010F0000C5F1F4F08C060817181072E000C880BA8
:10110000990B0E5F1F4FF32DFF763F2E97FF09C0FF
:1011100090958095709561957F4F8F4F9F4FF068A8
:101120003F2E2AE030E0A3010E94BB09882E8618DA
:1011300045C0853731F4232D2F7EB22E2AE030E0D2
:1011400025C0932D997FB92E8F36C1F018F48835BC
:1011500079F0B5C0803719F0883721F0B0C0E92F99
:10116000E061BE2EB4FE0DC0FB2DF460BF2E09C0A1
:1011700034FE0AC0292F2660B22E06C028E030E0D7
:1011800005C020E130E002C020E132E0F801B7FE06
:1011900007C060817181828193810C5F1F4F06C0FF
:1011A0006081718180E090E00E5F1F4FA3010E947B
:1011B000BB09882E8618FB2DFF773F2E36FE0DC00B
:1011C000232D2E7FA22E891458F434FE0BC032FC3E
:1011D00009C0832D8E7EA82E05C0B82CA32C03C079
:1011E000B82C01C0B92CA4FE0FC0FE01E80DF11D02
:1011F0008081803321F49A2D997EA92E09C0A2FE08
:1012000006C0B394B39404C08A2D867809F0B394D1
:10121000A3FC11C0A0FE06C0B21488F4280C922CC6
:101220009B180EC0B21460F4B60180E290E00E94F8
:101230007F09B394F7CFB21418F42B1802C0982C7E
:10124000212CA4FE10C0B60180E390E00E947F092B
:10125000A2FE17C0A1FC03C088E790E002C088E5A9
:1012600090E0B6010CC08A2D867859F0A1FE02C02C
:101270008BE201C080E2A7FC8DE2B60190E00E9403
:101280007F09891438F4B60180E390E00E947F0959
:101290009A94F7CF8A94F301E80DF11D8081B6018D
:1012A00090E00E947F098110F5CF222009F442CE00
:1012B000B60180E290E00E947F092A94F6CFF60101
:1012C0008681978102C08FEF9FEF2B96E2E10C940D
:1012D000350AFC010590615070400110D8F78095E7
:1012E00090958E0F9F1F0895FC01615070400190F2
:1012F0000110D8F7809590958E0F9F1F08950F933A
:101300001F93CF93DF93FB01238121FD03C08FEF58
:101310009FEF2CC022FF16C0468157812481358162
:101320004217530744F4A081B1819D012F5F3F4FC5
:10133000318320838C93268137812F5F3F4F378302
:10134000268314C08B01EC01FB010084F185E02DA4
:101350000995892BE1F6D80116968D919C911797E6
:10136000019617969C938E931697CE01DF91CF919D
:101370001F910F910895FA01AA27283051F12031C9
:1013800081F1E8946F936E7F6E5F7F4F8F4F9F4F19
:10139000AF4FB1E03ED0B4E03CD0670F781F891F5B
:1013A0009A1FA11D680F791F8A1F911DA11D6A0F29
:1013B000711D811D911DA11D20D009F468943F91DC
:1013C0002AE0269F11243019305D3193DEF6CF01DB
:1013D0000895462F4770405D4193B3E00FD0C9F7A1
:1013E000F6CF462F4F70405D4A3318F0495D31FD0E
:1013F0004052419302D0A9F7EACFB4E0A695979561
:10140000879577956795BA95C9F700976105710536
:1014100008959B01AC010A2E069457954795379580
:101420002795BA95C9F7620F731F841F951FA01DDA
:1014300008952F923F924F925F926F927F928F9278
:101440009F92AF92BF92CF92DF92EF92FF920F9353
:101450001F93CF93DF93CDB7DEB7CA1BDB0B0FB65D
:10146000F894DEBF0FBECDBF09942A88398848881A
:101470005F846E847D848C849B84AA84B984C884B0
:10148000DF80EE80FD800C811B81AA81B981CE0FA7
:10149000D11D0FB6F894DEBF0FBECDBFED0108958C
:0414A000F894FFCFEE
:1014A4000D0A4F4B0D0A0041542B4349504D4F44F4
:1014B400453D25640041542B4349504D55583D2525
:1014C4006400415445300041540041542B43495079
:1014D400434C4F53453D310041542B43574D4F44EA
:1014E400453D25640041542B43574A41503D222534
:1014F40073222C22257322000D0A574946492043A2
:101504004F4E4E45435445440D0A002B43574A4120
:10151400503A31002B43574A41503A32002B43573B
:101524004A41503A33002B43574A41503A34004120
:10153400542B43495053544154555300535441542C
:1015440055533A32005354415455533A330053548B
:10155400415455533A34005354415455533A350089
:101564004349504D55583A300041542B4349504D4E
:1015740055583F0041542B43495053544152543D14
:1015840022544350222C222573222C2573004154CB
:101594002B43495053544152543D222564222C225A
:1015A400544350222C222573222C257300434F4E82
:1015B4004E4543540D0A0041542B43495053454E64
:1015C400443D2564000D0A4F4B0D0A3E000D0A539D
:1015D400454E44204F4B0D0A0068616E6131323331
:1015E4003435006950686F6E65206F643A20486135
:1015F4006E61003830006170692E7468696E6773BB
:101604007065616B2E636F6D0042504A544D4A57AA
:101614005A594345524831474200474554202F7593
:1016240070646174653F6170695F6B65793D2573B2
:10163400266669656C64313D252E326426666965CB
:101644006C64323D252E3264266669656C64333DD4
:041654002564000009
:00000001FF
